:020000040800F2
:10000000782801207902000847230008431E0008D1
:1000100045230008D30500082B2800080000000035
:10002000000000000000000000000000092500089A
:100030009106000800000000492300080B25000875
:10004000930200089302000893020008930200083C
:10005000930200089302000893020008930200082C
:10006000930200089302000893020008930200081C
:10007000930200089302000893020008930200080C
:100080009302000893020008930200080000000099
:1000900000000000000000000000000093020008C3
:1000A00093020008AD25000893020008930200089F
:1000B00093020008930200089302000893020008CC
:1000C0009302000893020008930200084D230008E1
:1000D0009302000893020008930200080000000049
:1000E0009306000893020008930200080000000035
:1000F0000000000000000000000000009302000863
:100100000000000093020008930200089302000818
:1001100000000000000000000000000000000000DF
:10012000D505000893020008E105000893020008C5
:100130009302000800000000000000000000000022
:100140000000000000000000000000009302000812
:10015000930200089302000893020008930200082B
:100160009302000893020008000000000000000055
:10017000000000000000000000000000000000007F
:1001800000000000930200080000000000000000D2
:10019000930200089302000800F002F800F05CF8F7
:1001A0000AA090E8000C82448344AAF10107DA45D2
:1001B00001D100F051F8AFF2090EBAE80F0013F0C8
:1001C000010F18BFFB1A43F001031847A4A902004E
:1001D000C4A902000A444FF0000C10F8013B13F0D0
:1001E000070408BF10F8014B1D1108BF10F8015B90
:1001F000641E05D010F8016B641E01F8016BF9D183
:1002000013F0080F1EBF10F8014BAD1C0C1B09D1D9
:100210006D1E58BF01F801CBFAD505E014F8016B4B
:1002200001F8016B6D1EF9D59142D6D370470000DD
:100230000023002400250026103A28BF78C1FBD8EF
:10024000520728BF30C148BF0B6070471FB526F06A
:100250002EF91FBD10B510BD00F085F91146FFF74E
:10026000F5FF21F083FA00F0A3F903B4FFF7F2FFE2
:1002700003BC00F0A7F9000009488047094800477F
:10028000FEE7FEE7FEE7FEE7FEE7FEE7FEE7FEE746
:10029000FEE7FEE704480549054A064B70470000A3
:1002A0009D25000899010008782201207828012066
:1002B000782401207824012053EA020C00F06980A0
:1002C0002DE9F04B4FF00006002B1FBFB3FA83F56A
:1002D00003FA05F424FA05F65E4012BF1643B2FA9B
:1002E00082F502FA05F4C5F120051EBF22FA05FCCD
:1002F00044EA0C04203556EA044C4FEA144418BF73
:10030000641C4FF000084FF00009904271EB030CA1
:1003100039D3002919BFB1FA81F701FA07F6B0FA0B
:1003200080F700FA07F6C7F120071EBF20FA07FC86
:1003300046EA0C062037B6FBF4FCA7EB0507103F96
:1003400007F01F0BCBF120060CFA0BFB2CFA06F67C
:1003500044BFB3460026202FA4BF5E464FF0000BDB
:100360005BEA060C08BF4FF0010B19EB0B09ABFB66
:10037000027C48EB0608C01B06FB02CC0BFB03CC3F
:1003800071EB0C01C1E70B46024641464846BDE809
:10039000F08B13B54FF000004FF00001AFF3008079
:1003A000BDE81C40704740EA0103024630B59B0798
:1003B00010D14FF0013400E008C208C91D1B9D4355
:1003C00015EAC41FF8D013F0FF0102F8011B0DD08D
:1003D0001B0AF8E711F8013B002B02F8013B05D09E
:1003E00011F8013B002B02F8013BF3D130BD10B5F1
:1003F000431C02E010F8011B71B18107FAD14FF0E4
:10040000013202C88C1A8C4314EAC211F9D0C01A06
:100410000A0603D0C01E10BDC01A10BD0A0401D0C8
:10042000801E10BD0902FCD0401E10BD10B5203A40
:10043000C0F00B80B1E81850203AA0E81850B1E89D
:100440001850A0E81850BFF4F5AF5FEA027C24BF53
:10045000B1E81850A0E8185044BF18C918C0BDE84A
:1004600010405FEA827C24BF51F8043B40F8043B13
:1004700008BF7047D20728BF31F8023B48BF11F8C8
:10048000012B28BF20F8023B48BF00F8012B704722
:100490004FF0000200B5134694469646203922BF1D
:1004A000A0E80C50A0E80C50B1F12001BFF4F7AF68
:1004B000090728BFA0E80C5048BF0CC05DF804EB4A
:1004C000890028BF40F8042B08BF704748BF20F8B8
:1004D000022B11F0804F18BF00F8012B704700006D
:1004E0004FF0013C50F8042B51F8043B9A4221D1C3
:1004F000A2EB0C03934313EACC1317D150F8042B4F
:1005000051F8043B9A4215D1A2EB0C03934313EA32
:10051000CC130BD150F8042B51F8043B9A4209D16B
:10052000A2EB0C03934313EACC13DBD04FF0000093
:10053000704700BFD01A01BAB1FA81F101F0180179
:1005400022FA01F0CB40C1F12001DBB2C0B2C01AE7
:100550002CFA01F3D11A914311EAC311E6D1704785
:10056000704770477047754600F028F8AE460500A2
:100570006946534620F00700854618B020B5FFF7BE
:1005800089FEBDE820404FF000064FF000074FF015
:1005900000084FF0000B21F00701AC46ACE8C009A1
:1005A000ACE8C009ACE8C009ACE8C0098D467047AA
:1005B0000446AFF300802046FFF757FE004870471F
:1005C0001422012001491820ABBEFEE726000200DC
:1005D0007047FEE7014800F07FB80000900200205D
:1005E000014800F079B80000F002002001681823EB
:1005F000CAB2103AB2FBF3F2054B6FF30901032ABA
:100600009B5CC36500D9091D8165084670470000E1
:10061000B864020810B5014600208B698A6A4FF061
:10062000C07453B1B3F5005F15D072B1012A0CD07C
:10063000022A0AD0032A09D104E01AB1012A06D0FD
:10064000022A03D1C96AC90100D5012010BDC96AB7
:10065000A142FAD010BD002AF7D0012AF2D0022A16
:10066000F3D0032AF3D010BD30B50468256825F413
:1006700080252560046863608368402B036803D08D
:1006800099600068C26030BD9A600068C16030BD8A
:10069000704710B54FF4005000F0CEF94FF4804091
:1006A00000F0CAF9BDE810404FF4004000F0C4B9B2
:1006B00072B6FEE790F83510022903D0802141651B
:1006C00001207047052180F835100068016821F08D
:1006D00001010160002070472DE9F84304464FF006
:1006E0000009CDF8009063484FF41651A56D0068DD
:1006F000B0FBF1F72E6894F85C10082000FA01F1C5
:1007000031420FD021680A6852070BD50A6822F0DF
:1007100004020A6094F85C108840A860606D40F0A4
:100720000100606594F85C104FF0010808FA01F0D0
:10073000304208D021684969090604D5A860606D77
:1007400040F00200606594F85C100420884030425C
:1007500008D021680968890704D5A860606D40F059
:100760000400606594F85C1010208840304218D076
:1007700021680968090714D5A86020680168490341
:1007800004D50068000308D5A16C07E00168C9051D
:1007900003D4016821F008010160216C09B12046F1
:1007A000884794F85C1020208840304231D021687E
:1007B0000968C9062DD5A86094F835000528206879
:1007C000016806D0490347D5006800031DD4616C59
:1007D0001CE021F0160101602068416921F08001D0
:1007E0004161206C08B9A06C20B12068016821F03B
:1007F0000801016094F85C103F208840A86084F8EC
:10080000358084F83490216D1FE0E16B09B12046FA
:100810008847606D00282BD0606DC00714D005207C
:1008200084F835002068016821F00101016000981A
:10083000401C0090B84203D820680068C007F6D179
:1008400084F8358084F83490E16C002910D001B030
:100850002046BDE8F04308470168C905D5D40168C2
:1008600021F01001016084F8358084F83490CCE7E1
:10087000BDE8F883100000202DE9F041044600F0A7
:10088000E1F906465CB1022084F83500002584F8C1
:1008900034502068016821F0010101600DE0012061
:1008A000BDE8F08100F0CEF9801B052805D9202095
:1008B0006065032084F83500F2E720680068C0070F
:1008C000F0D12268116820480140D4E9010318439F
:1008D000D4E903363343184363691843A3691843C3
:1008E000E3691843236A18430843616A042903D162
:1008F000D4E90B1319430843106020684069666A05
:1009000020F0070130460E43012704280CD1A06ACD
:100910000643E06A40B12046FFF77CFE20B140204C
:10092000606584F83570BAE7206846612046FFF7B5
:100930005DFE94F85C203F2191408160656584F8FC
:1009400035700020ACE700003F8010F02DE9F04149
:100950000446866D90F83400002501280DD0012052
:1009600084F8340094F835700020012F07D084F803
:10097000340002252846BDE8F0810220FBE702276B
:1009800084F8357060652046FFF76EFE94F85C10C1
:100990003F208840B0602068016841F01601016086
:1009A000206C20B12068016841F0080101602068D6
:1009B000016841F001010160DCE7000070B5044608
:1009C00000F040F90546601C02D004480078044459
:1009D00000F038F9401BA042FAD370BD040000209B
:1009E00070B54FF400510025104C884205D11048D5
:1009F00000F01EF9A0B9042015E04FF480410D4A23
:100A0000884205D1104600F013F948B903200AE0E6
:100A10004FF40041884204D1104600F009F908B1B2
:100A2000257070BD0520207070BD000020000020E2
:100A30000008024000040240044910B50A6802425E
:100A400002D00860FFF7CCFF10BD0000143C01404D
:100A50002DE9F84FDFF8B8A10022012403254FF05B
:100A60000F090AF1040BAAF1040E00BF0B6804FA87
:100A700002F63340B34273D10F7907F00307012F19
:100A800001D0022F16D187684FEA420805FA08FC08
:100A900027EA0C07D1F80CC00CFA08FC4CEA070C4A
:100AA000C0F808C04768B7430E79C6F300169640F1
:100AB0003E4346600E79F643B6070DD0C768560030
:100AC00005FA06FC27EA0C07D1F808C00CFA06FC68
:100AD0004CEA070CC0F80CC00E7906F00306022E93
:100AE00010D1D60800EB8608D8F8206057074FEAE7
:100AF000D76C09FA0CF7BE430F6907FA0CF73743B6
:100B0000C8F8207006684FEA420C05FA0CF7BE439D
:100B10000F7907F0030707FA0CF7374307604E68B1
:100B200016F4403F6DD03B4E376847F4804737603E
:100B3000366822F0030706F480460096364E07EB2F
:100B4000060CDCF8086897073F0F09FA07F826EA51
:100B50000806DFF8C880404503D14FF000081EE0CA
:100B60004FE0DFF8BC80404502D14FF0010816E0AD
:100B7000DFF8B080404502D14FF002080FE0DFF807
:100B8000A880404502D14FF0030808E0DFF89C80C0
:100B9000404502D14FF0040801E04FF0070808FA81
:100BA00007F848EA0608CCF80888DAF800605746E3
:100BB000D1F804C09E435FEACC2C00D51E433E60B2
:100BC000DBF800605F46D1F804C09E435FEA8C2CDE
:100BD00000D51E433E60DEF800607746D1F804C0C1
:100BE0009E435FEA8C3C00D51E433E60084F083FA1
:100BF0003E68D1F804C09E435FEACC3C00D51E435A
:100C00003E60521C102AFFF431AFBDE8F88F00009F
:100C1000083C0140443802400030014000000240DE
:100C20000004024000080240000C02400010024094
:100C30000069084000D0012070470AB18161704707
:100C40000904FBE7014880687047000004000020A9
:100C500002488168027811448160704704000020D6
:100C60000B4810B5016841F400710160016841F45E
:100C700080610160016841F480710160032000F02F
:100C800095F80F2000F006F800F04AF8002010BD9B
:100C9000003C024030B505461C4887B0002401687E
:100CA00041F001010160006806A900F00100009018
:100CB00001A800F027F900F045F91549154AB0FBE5
:100CC000F1F11548491E026040F2E732C0E9032401
:100CD000C0E90114846100F0D3FD040012D10E4874
:100CE00000F028FE04000DD1192000F031F8102D7D
:100CF00007D200222946192000F038F8074805607D
:100D000000E0012407B0204630BD00004438024016
:100D100040420F0000000140E003002008000020D6
:100D20000A4808B5016841F480410160006800F498
:100D3000804000900548001F016841F0805101602B
:100D4000006800F08050009008BD00004438024068
:100D5000002809DB00F01F020121914040098000BA
:100D600000F1E020C0F8001170470000F0B40E4B15
:100D70001B680C46C3F30223C3F10705042D00D9F9
:100D80000425191D072901D2002300E0DB1E0126DE
:100D900006FA05F1491E214099409E40761E1640F4
:100DA0003143F0BC01F042BD0CED00E0064900F01B
:100DB000070208684FF6FF03184040EA0220034A82
:100DC00010430860704700000CED00E00000FA05D9
:100DD0002DE9F0470E46050065D0DFF81481D8F8FC
:100DE0000000F7B200F00700B04207D288F80070A8
:100DF000D8F8000000F00700B04254D128683D4CFC
:100E0000810712D5400703D5206840F4E0502060E8
:100E10002878000703D5206840F4604020602068EF
:100E2000A96820F0F000084320602878C0072DD082
:100E3000304968680839012812D0022813D00328E5
:100E400011D00968890700292DDA216821F00301F2
:100E500001432160FFF7F6FE814641F2883A0EE039
:100E600009688903EFE709688901ECE7FFF7EAFE03
:100E7000A0EB0901514502D90320BDE8F0872068A5
:100E8000696800F00C00B0EB810FEFD1D8F80010CA
:100E9000404601F00701B14207D90770006800F031
:100EA0000700B04201D00120E7E72878400705D5C8
:100EB0002068E96820F4E0500843206028780007A3
:100EC00006D52068296920F4604040EAC10020600E
:100ED00000F048F82168084AC1F30311515CC8408A
:100EE0000649086006480068FFF7D4FE0020C4E702
:100EF000003C024008380240C06402081000002094
:100F0000080000200F2202600C4A136803F003035C
:100F10004360136803F0F0038360136803F4E05345
:100F2000C36012684FF4E05303EAD202026104483E
:100F3000006800F0070008607047000008380240B1
:100F4000003C02400448054900680968044AC1F3AE
:100F50004231515CC8407047100000200838024000
:100F6000D0640208104810B5006810F00C010F485A
:100F700018D0042916D0082914D10B4C241F21683D
:100F800001F03F02216821680023C1F38811A1FB11
:100F90000001FFF791F92168C1F30141491C4900A3
:100FA000B0FBF1F010BD0000083802400024F4004E
:100FB0002DE9F84F04006ED02078DFF84C93C0077D
:100FC000A9F104054AD009F104000168C1F38101C7
:100FD000012908D00068C0F3810002280AD1D9F89D
:100FE0000000400206D52868800337D560680028D5
:100FF000E1D033E06068B0F5803F10D0B0F5A02FAD
:10100000286810D020F480302860286820F48020E0
:1010100028606068A8B1FFF715FE06460DE0286855
:1010200040F48030F4E740F480202860F7E700BF08
:10103000FFF708FE801B642873D828688003F7D563
:101040000CE0FFF7FFFD064605E000BFFFF7FAFDE5
:10105000801B6428F0D828688003F7D42078DFF854
:10106000AC8280074FF0000A3ED5A748001D0168FA
:1010700011F00C0F08D00068C0F3810002280BD1DA
:10108000D9F80000400207D42868800716D5E06828
:10109000012800D112E033E1E068B8B10120C8F8BE
:1010A0000000FFF7CFFD064605E000BFFFF7CAFDD1
:1010B000801B0228C0D828688007F7D528682169D6
:1010C00020F0F80040EAC10028600DE0C8F800A058
:1010D000FFF7B8FD064604E0FFF7B4FD801B0228C9
:1010E0001FD828688007F7D42078000722D5864FBC
:1010F00087486169703771B101210160FFF7A2FD76
:10110000064604E0FFF79EFD801B022809D83868D8
:101110008007F7D50EE0C0F800A0FFF793FD064664
:1011200005E082E0FFF78EFD801B02287DD838683D
:101130008007F7D42078400768D5DFF8CCB10027C6
:101140000BF13C0BDBF80000C0000BD4DBF8001007
:1011500041F08051CBF80010DBF80000012700F0CF
:10116000805000906B4E3068C00510D4306840F459
:1011700080703060FFF766FD009005E0FFF762FDCC
:101180000099401A022850D83068C005F6D55E4E46
:10119000A0686C3601280FD00528306810D020F0E8
:1011A00001003060306820F004003060A068B8B101
:1011B000FFF748FD00900FE0306840F00100F4E7D1
:1011C00040F004003060F7E7FFF73CFD0099411A5A
:1011D00041F28830814266D830688007F4D50EE04D
:1011E000FFF730FD009007E0FFF72CFD0099411A52
:1011F00041F28830814256D830688007F4D42FB14C
:10120000DBF8001021F08051CBF80010A069C8B3C2
:101210003D49091D0968C1F3810102294AD002280C
:10122000504607D0C8F8600000E03CE0FFF70AFD38
:1012300004463BE04746C8F86000FFF703FD06465A
:1012400005E000BFFFF7FEFC801B02282BD82868B2
:101250008001F7D4D4E907010843A16A2E4A49085E
:1012600002EB0141626A41EA8211084394F82C10B2
:1012700040EA0161C9F8001001203866FFF7E2FC7E
:10128000044606E03EE000BFFFF7DCFC001B02283E
:1012900009D828688001F7D534E000BFFFF7D2FCF9
:1012A000001B022802D90320BDE8F88F28688001BE
:1012B000F4D427E00128F7D0D9F80000E26900F45F
:1012C000800191421CD1226A00F03F01914217D166
:1012D00047F6C071626A0140B1EB821F10D1A26A69
:1012E0004FF0FF3300F4403103EB5202B1EB024FF9
:1012F00006D194F82C1000F07060B0EB016F01D0B3
:101300000120D1E70020CFE7043802400000474227
:10131000800E4742007000400000FFFF7047000051
:1013200038B5016804464A688868C043430606D554
:10133000C30704D1D3435B0601D4216C05E08307C6
:1013400008D4D3431B0605D4616C01B02046BDE828
:1013500030400847830603D5430601D5C30551D461
:10136000D3439B064ED443060AD494F85130032B42
:1013700049D0636D43F004036365CB688B680093C9
:10138000830609D4636D43F0010363658B680093A2
:101390000B6823F040030B60C00506D4606D40F07D
:1013A00008006065206880680090606D002829D082
:1013B0002068416821F0E0014160012084F851007B
:1013C000900701D4D00722D02068416821F00301A2
:1013D0004160114DE06C40B10565E06CFFF76AF9C2
:1013E00018B1606D40F040006065A06C002809D025
:1013F0000565A06CFFF75EF9002803D0606D40F032
:101400004000606538BDC8688868009038BD2046D7
:10141000FFF784FF38BD00005923000870B50400B1
:1014200009D0606A002540B125616561A56294F824
:10143000510040B10CE0012070BD6068B0F5827FC2
:10144000F4D0E561F2E784F85050204600F044F80B
:10145000022084F851002068016821F040010160F9
:10146000A088218900F4827001F404410843A18915
:1014700001F400610843217C01F002010843217D51
:1014800001F001010843218B01F400710843217F21
:1014900001F03801084394F8201001F0800108435E
:1014A000218D01F40051084321680860A0690421DE
:1014B00001EA104094F8241001F01001084321685B
:1014C00048602068C16921F40061C161656501203F
:1014D00084F85100002070BDF0B587B00646142195
:1014E0006846FEF7D5FF3049306888425AD12F4808
:1014F0000024016841F480510160006800F48050CC
:1015000005902A481438016841F002010160006822
:10151000694600F002000590382000900220CDE9D5
:10152000010403200390052004902148FFF790FA5E
:10153000214D20484FF4806728604FF0C060C5E916
:101540000104C5E903476C61AC61EC612C6228467B
:101550006C62FFF791F908B1FFF7AAF8F564AE6382
:10156000154D14486035303028604FF08060686059
:1015700005F10801402081E891006C61AC61EC61EB
:101580002C6228466C62FFF777F908B1FFF790F8F4
:10159000B564002211462320AE63FFF7E7FB23204A
:1015A000FFF7D6FB07B0F0BD0030014044380240E1
:1015B0000004024010640240900200202DE9F84F20
:1015C000044690F8500000271D461646894601281B
:1015D0000DD04FF0010B84F850B0FFF733FB80467D
:1015E00094F85100BA46012804D0022793E0022063
:1015F000BDE8F88FB9F1000F73D0002E71D0032031
:1016000084F85100C4F854A0C4F83090A686E68649
:10161000C4F838A0A4F83CA0A4F83EA0C4F844A0A4
:10162000C4F840A0A068B0F5004F09D12068016857
:1016300021F0400101602068016841F480410160AF
:1016400020680168490603D4016841F04001016047
:10165000E068B0F5006F606803D030B3012E24D08D
:1016600041E008B1012E1CD1206B21680088C860C0
:1016700006E020688168890709D5216B0988C16067
:10168000206B801C2063E08E401EE08609E0FFF79F
:10169000D9FAA0EB0800A84202D3681C01D031E0BF
:1016A0007DB3E08E0028E4D120E0206B2168007833
:1016B000087306E020688168890709D5216B0978DD
:1016C0000173206B401C2063E08E401EE0860AE020
:1016D000FFF7B8FAA0EB0800A84203D3681C02D0B9
:1016E00010E017E06DB1E08E0028E3D142462946B4
:1016F000204600F081FE08B120206065A06818B186
:1017000006E0FFE7032706E02068C16880680090D4
:10171000606D00B1012784F851B084F850A03846BC
:1017200066E700002DE9F041044690F850000026DD
:10173000012809D0012784F8507094F85100002541
:10174000012804D002264EE00220BDE8F08189B1D4
:1017500082B1032084F8510065652163A286E28688
:10176000A56365642564A587E587A068B0F5004F8B
:1017700002D00BE0012636E02068016821F040012C
:1017800001602068016841F480410160A16C184843
:101790000864A16C1748C863A16C1748C864A06CA2
:1017A0000565E38E2268216B0C32A06CFFF7CEF842
:1017B00038B1606D40F010006065012684F851700A
:1017C00011E020680168490603D4016841F0400136
:1017D00001602068416841F0200141602068416853
:1017E00041F00201416084F850503046ADE70000FE
:1017F0008B23000895230008692300087047704771
:101800007047704770B590F83C20012A2CD0012415
:1018100080F83C40022280F83D2003685A689D68A9
:1018200022F070060A6832435A60104B02689A42EE
:101830000ED0B2F1804F0BD00D4B9A4208D00D4B19
:101840009A4205D00C4B9A4202D00C4B9A4204D1DA
:10185000496825F080031943916080F83D400021DC
:1018600080F83C10084670BD022070BD00000140A9
:101870000004004000080040000C0040004001400F
:1018800010B5040003D094F83D0010B107E001202A
:1018900010BD002084F83C00204600F01FF8022014
:1018A00084F83D00211D206800F08EFE012084F8A0
:1018B000460084F83E0084F83F0084F8400084F835
:1018C000410084F8420084F8430084F8440084F81E
:1018D000450084F83D00002010BD000008B50068F8
:1018E0001149884209D11148016841F004010160A1
:1018F000006800F00400009008BD0D498842FBD14B
:101900000A48001D016841F40031016000680022AE
:1019100000F4003000900F211920FFF727FABDE8EE
:1019200008401920FFF714BA000800404038024070
:101930000044014090F83D10012901D0012070477A
:10194000022180F83D100168CA6842F00102CA60B5
:1019500000680E4988420ED0B0F1804F0BD00C4980
:10196000884208D00B49884205D00B49884202D0F2
:101970000A49884204D1816801F00701062903D091
:10198000016841F001010160002070470000014042
:101990000004004000080040000C004000400140EE
:1019A00070B5044690F83C000025012817D00126A8
:1019B00084F83C60022084F83D002068826822F0B0
:1019C000770222F47F4282600868502838D00DDC0C
:1019D00020284FD005DC90B3102811D14AE0022016
:1019E00070BD302846D040280AD13BE060282FD077
:1019F00070280DD0B0F5805F03D0B0F5005F12D035
:101A0000012584F83D60002084F83C00284670BD24
:101A1000CB68D1E90121206800F02FFE20688168A1
:101A200041F0770109E0CB68D1E90121206800F09D
:101A300024FE2068816841F480418160E1E719E07B
:101A4000CA684968206800F0CDFE5021206806E091
:101A5000CA684968206800F0D6FE6021206800F05E
:101A600016FECEE7CA684968206800F0BBFE402138
:101A70002068F4E7226801461046F0E7704770B529
:101A80000446006801694FF00005C943890715D471
:101A9000C168C943890711D4E91E0161012020777B
:101AA000206880698007204602D0FFF7E7FF04E046
:101AB00000F0C2F8204600F054F92577206801694B
:101AC000C943490717D4C168C943490713D46FF004
:101AD00004010161022020772068806910F4407FB2
:101AE000204602D0FFF7CAFF04E000F0A5F8204628
:101AF00000F037F9257720680169C943090716D432
:101B0000C168C943090712D46FF0080101610420BC
:101B100020772068C0698007204602D0FFF7AEFF1B
:101B200004E000F089F8204600F01BF925772068D2
:101B30000169C943C90617D4C168C943C90613D48A
:101B40006FF010010161082020772068C06910F44F
:101B5000407F204602D0FFF791FF04E000F06CF8D0
:101B6000204600F0FEF8257720680169C943C907BF
:101B700008D1C168C943C90704D1891E0161204643
:101B800000F048F920680169C943090609D4C16811
:101B9000C943090605D46FF0800101612046FFF7B3
:101BA0002FFE20680169C943490609D4C168C943A9
:101BB000490605D46FF040010161204600F040F96C
:101BC00020680169C94389060BD4C168C9438906E5
:101BD00007D46FF0200101612046BDE87040FFF797
:101BE00010BE70BD10B586B0044614216846FEF7DD
:101BF0004FFC0E492068884215D10D48002102682B
:101C000042F002020260006800F0020005908020AD
:101C100000900220CDE901010321CDE903106946BE
:101C20000448FEF715FF06B010BD00000008004094
:101C30003038024000040240704770B5044690F806
:101C40003C0000260D4601280FD0012084F83C00FE
:101C50006AB1042A1DD0082A2FD00C2A3FD00126B1
:101C6000002084F83C00304670BD022070BD206822
:101C700000F016FD2068816941F00801816120684B
:101C8000816921F004018161206881692A69114319
:101C900011E0206800F02CFD2068816941F40061AA
:101CA00081612068816921F4806181612068816996
:101CB0002A6941EA02218161D2E7206800F044FDEF
:101CC0002068C16941F00801C1612068C16921F043
:101CD0000401C1612068C1692A69114311E02068CB
:101CE00000F05EFD2068C16941F40061C1612068B7
:101CF000C16921F48061C1612068C1692A6941EA32
:101D00000221C161ACE710B5040003D094F83D0096
:101D100010B107E0012010BD002084F83C002046EF
:101D200000F01EF8022084F83D00211D206800F01C
:101D30004BFC012084F8460084F83E0084F83F0004
:101D400084F8400084F8410084F8420084F843009D
:101D500084F8440084F8450084F83D00002010BD5C
:101D60007047704710B50446022249B104290ED0CD
:101D7000082913D094F84100012816D0012010BD85
:101D800094F83E000128F9D184F83E200FE094F841
:101D90003F000128F2D184F83F2008E094F8400089
:101DA0000128EBD184F8402001E084F84120012291
:101DB000206800F055FC12492068884203D1426C2B
:101DC00042F400424264206888420ED0B0F1804F55
:101DD0000BD00C49884208D00B49884205D00B49EA
:101DE000884202D00A49884204D1816801F0070183
:101DF000062903D0016841F001010160002010BDF7
:101E0000000001400004004000080040000C0040B9
:101E10000040014010B5044600680749884201D1DE
:101E2000FEF716FF05492068884204D1BDE810403E
:101E300001201EF065BF10BD0000014000440140BC
:101E40007047FEE72DE9F04104461D4616460F4651
:101E50002A2000F045F9204600F008F9304600F04D
:101E600005F92B2000F03CF9384600F0FFF8284631
:101E700000F0FCF8BDE8F0412C2000F031B9000082
:101E800010B50A4C0122D1032046FEF7D6FE0122EE
:101E900051020748FEF7D1FE012211022046FEF74B
:101EA000CCFE044900200968886310BD0000024090
:101EB000000402405003002070B5FFF7E1FF694DB8
:101EC0004FF40074002221462846FEF7B6FE642037
:101ED000FEF774FD012221462846FEF7AEFE64207F
:101EE000FEF76CFD6049642009688863FEF766FDB3
:101EF000112000F0F5F87820FEF760FD362000F0A4
:101F0000EFF8002000F0D2F83A2000F0E9F80520C0
:101F100000F0CCF8B22000F0E3F80C2000F0C6F896
:101F20000C2000F0C3F8002000F0C0F8332000F0CF
:101F3000BDF8332000F0BAF8B72000F0D1F8352012
:101F400000F0B4F8BB2000F0CBF8192000F0AEF898
:101F5000C02000F0C5F82C2000F0A8F8C22000F046
:101F6000BFF8012000F0A2F8C32000F0B9F8122059
:101F700000F09CF8C42000F0B3F8202000F096F8A0
:101F8000C62000F0ADF80F2000F090F8D02000F04F
:101F9000A7F8A42000F08AF8A12000F087F8E0203C
:101FA00000F09EF8D02000F081F8042000F07EF8C8
:101FB0000D2000F07BF8112000F078F8132000F0DD
:101FC00075F82B2000F072F83F2000F06FF85420D5
:101FD00000F06CF84C2000F069F8182000F066F86A
:101FE0000D2000F063F80B2000F060F81F2000F0D7
:101FF0005DF8232000F05AF8E12000F071F8D020BD
:1020000000F054F8042000F051F80C2000F04EF8D5
:10201000112000F04BF8132000F048F82C2000F0BD
:1020200045F83F2000F042F8442000F03FF85120EE
:1020300000F03CF82F2000F039F81F2000F036F8AF
:102040001F2000F033F8202000F030F8232000F0AB
:102050002DF8212000F044F8BDE87040292000F060
:102060003FB800000004024050030020F8B50D4EB8
:1020700004464FF40045002229463046FEF7DDFDB8
:10208000200A8DF800008DF801404FF47A73022287
:1020900069460548FFF792FA012229463046FEF7C5
:1020A000CCFDF8BD000002403802002031B50A4DD9
:1020B0004FF40044002221462846FEF7BEFD4FF4AF
:1020C0007A73012269460548FFF778FA0122214612
:1020D0002846FEF7B2FD38BD00000240380200205D
:1020E00070B5094D06464FF48074002221462846FB
:1020F000FEF7A3FD3046FFF7D9FF21462846BDE88D
:1021000070400122FEF799BD000002400D4808B55D
:10211000016841F4800101600068002200F4800041
:10212000009011463820FEF721FE3820FEF710FE01
:10213000002211463A20FEF719FEBDE808403A2079
:10214000FEF706BE303802402DE9F04786B0142174
:102150006846FEF79DF934480025016841F0040106
:102160000160016801F004010591016841F08001FE
:102170000160016801F080010591016841F00201F0
:102180000160016801F002010591016841F001015F
:1021900001600068DFF8949000F0010001220590D2
:1021A00011034846FEF749FDDFF884A04FF40148CB
:1021B000002241465046FEF740FD00224FF40071D8
:1021C0004846FEF73AFD4FF400504FF44416CDE96F
:1021D00000060124694602941648FEF739FC4FF4C4
:1021E000905003278DE8B10069464846FEF730FC61
:1021F000B803CDE90006694602944846FEF728FC7C
:1022000001AACDF8008082E8B00069465046FEF78A
:102210001FFC002211462820FEF7A8FD2820FEF70B
:1022200097FD06B0BDE8F087303802400004024058
:1022300000000240000802400F4810B50D4901603F
:102240004FF48271416000218160C1604FF40072DF
:102250000161C0E90512C1610162416281620A2126
:10226000C162FFF7DBF8002803D0BDE81040FEF79D
:102270001FBA10BD00300140380200200B4810B5D5
:102280000949016063214160002140F2E732C0E961
:10229000021201618161FFF7F3FA002803D0BDE863
:1022A0001040FEF705BA10BD00440140980300201D
:1022B00010B58EB000240794089409940A940B94E6
:1022C0001C2168460C94FEF7E3F81D481B49016089
:1022D0006321C0E90114C0E903148461FFF7D0FA57
:1022E00008B1FEF7E5F94FF48050079007A91448AC
:1022F000FFF756FB08B1FEF7DBF91148FFF703FDC6
:1023000008B1FEF7D5F90B940BA90D480C94FFF713
:1023100079FA08B1FEF7CCF96020CDE90004029407
:102320000422694606480494FFF787FC08B1FEF7CB
:10233000BFF90348FFF756FC0EB010BD000800407F
:1023400050030020FEE7FEE7704700000148FEF75B
:10235000E7BF00003802002010B5806B0021C18764
:10236000C186FEF7DBFF10BD10B5806B01684A68BF
:1023700022F003024A60416D41F0100141650121E4
:1023800080F85110FEF7CAFF10BD10B5806BFFF743
:1023900036FA10BD38B50546846BFEF753FC02468D
:1023A00028680068C00523D42068416821F0200116
:1023B00041602068416821F00201416064212046AB
:1023C00000F01AF818B1606D40F020006065A06858
:1023D000002118B92068C26880680090E186012059
:1023E00084F85100606D18B12046FEF797FF38BDA4
:1023F0002046FFF703FA38BD38B504461248134BA0
:102400000068B0FBF3F04FF47A73584300906068B3
:10241000B0F5827F0DD10B4600920022802120462C
:1024200000F016F870B1606D40F020006065032088
:1024300038BD009830B1401E009020688068C043CD
:102440000006F6D5002038BD1000002000366E01D1
:102450002DE9F8431E46914688460446089DFEF73E
:10246000F1FB401B351AFEF7EDFB074625480068D7
:10247000C0F3CB30684338E0701C37D0FEF7E2FB86
:10248000C01BA84203D215B1009860B32CE02068AD
:10249000416821F0E00141606068B0F5827F0BD1B6
:1024A000A068B0F5004F02D0B0F5806F04D120686D
:1024B000016821F040010160A06AB0F5005F09D118
:1024C0002068016821F4005101602068016841F42E
:1024D00000510160012084F85100002084F8500070
:1024E0000320BDE8F8830025401E00902068816825
:1024F00038EA010004D000214945BDD10020F0E7B1
:102500000121F9E7100000207047704730B593B003
:1025100030216846FDF7BCFF14210CA8FDF7B8FF79
:102520001C480024016841F080510160006800F0FF
:10253000805011901848016841F4404101600068E2
:10254000022500F4404011900120039010200490D7
:10255000009506950820CDE907406420CDE90905DE
:1025600004200B906846FEF723FD08B172B6FEE723
:102570000F20CDE90C054FF48050CDE90E4003212A
:102580000CA81094FEF724FC002801D072B6FEE7D8
:1025900013B030BD4038024000700040024801686E
:1025A00041F470010160704788ED00E010B5044807
:1025B000FFF765FABDE810400248FFF760BA000077
:1025C000E003002098030020F0B502681D4B1E4C6C
:1025D0009F031E4D1E4E984207D0B84205D0A04220
:1025E00003D0A84201D0B04204D122F0700C4A6856
:1025F00042EA0C02984210D0B8420ED0A0420CD051
:10260000A8420AD0B04208D0124CA04205D0124CC9
:10261000A04202D0114CA04203D122F44074CA68F7
:1026200022434C6922F08002224302608A68C2621F
:102630000A688262984201D10969016301214161FE
:10264000F0BD000000000140000400400008004010
:10265000000C00400040014000440140004801409F
:1026600010B501F01F030121046A99408C430462F4
:10267000016A9A401143016210BD10B5846842EAB4
:10268000032224F47F440A432243826010BD8268FF
:1026900022F070020A4342F0070181607047000097
:1026A00030B5026A22F001020262026A436884695C
:1026B00024F073050C682C4322F002058A682A4333
:1026C0000A4DA8420BD122F00805CA6823F44073D2
:1026D0002A434D6922F004021D438B692B4343605A
:1026E000846149684163026230BD0000000001401E
:1026F00030B5026A22F010020262026A43688469FD
:102700000D6824F4E64444EA05248D6822F0200292
:1027100042EA05120B4DA8420ED1CD6822F080028C
:1027200042EA05124D6923F4406343EA85038D694B
:1027300022F0400243EA8503436084614968816373
:10274000026230BD0000014030B5026A22F480729E
:102750000262036A4268C46923F4007324F07305BB
:102760000C682C438D6843EA05230C4DA8420ED11A
:10277000CD6823F4006343EA05234D6922F44052F7
:1027800042EA05128D6923F4806342EA0512426031
:10279000C4614968C163036230BD000000000140AC
:1027A00030B5026A22F480520262046A4268C36948
:1027B0000D6823F4E64343EA05238D6824F40054AE
:1027C00044EA0534064DA84204D14D6922F4804202
:1027D00042EA85124260C36149680164046230BD07
:1027E0000000014010B5036A046A24F00104046289
:1027F000846924F0F00444EA021423F00A020A4334
:102800008461026210BD10B5036A23F010030362F5
:102810008369046A23F4704343EA023224F0A0037C
:1028200043EA01118261016210BDFEE70907090E4A
:10283000002804DB00F1E02080F80014704700F06D
:102840000F0000F1E02080F8141D704770B50446B9
:1028500000256FF02F0608E02068411C21600078F9
:1028600005EB850106EB410145182068007800F072
:1028700004F80028F0D1284670BD3038092801D866
:10288000012070470020704710B54421074800F030
:10289000BDFE00221E2106481EF08CFA054CA060E9
:1028A00001F060FF0020207010BD00007032002099
:1028B000194800089400002070B5B1F90030B2F951
:1028C0000040A34200DC23460380B1F90250B2F974
:1028D0000240A54200DD2C464480B1F90460B2F903
:1028E0000450AE4200DA35468580B1F90610B2F9DF
:1028F0000620914200DB1146C1800120AB4201DC81
:102900008C4200DD002070BDF8B50D460446B0F9DC
:102910000000B1F900101646884247DBB4F90210F6
:10292000B5F90220914241DBB4F90410B5F9042055
:1029300091423BDCB4F90610B5F90620914235DC32
:1029400096B3ADF800006088ADF8020032466946E3
:10295000284600F099F8002827D0A088ADF800009C
:102960006088ADF8020032466946284600F08CF8CF
:1029700000281AD02088ADF80000E088ADF80200E9
:1029800032466946284600F07FF800280DD0A0881E
:10299000ADF80000E088ADF80200324669462846EE
:1029A00000F072F8002800D00120F8BD0020F8BD2A
:1029B000B0F90020B1F904309A4213DCB0F90420D8
:1029C000B1F900309A420DDBB0F90220B1F90630BE
:1029D0009A4207DCB0F90600B1F90210884201DB27
:1029E0000120704700207047F8B50D460446B0F945
:1029F0000400B1F900101646884243DBB4F9060022
:102A0000B5F9021088423DDBB4F90000B5F90410B5
:102A1000884237DCB4F90210B5F90620914231DC66
:102A200076B3ADF800006088ADF802003246694622
:102A3000284600F029F818BBA088ADF8000060888F
:102A4000ADF8020032466946284600F01DF8B8B9D4
:102A50002088ADF80000E088ADF8020032466946F3
:102A6000284600F011F858B9A088ADF80000E088B9
:102A7000ADF8020032466946284600F005F808B174
:102A80000020F8BD0120F8BD2DE9FC4114460E469A
:102A9000B1F90020B0F9001005468A423ADBB5F9D9
:102AA0000400824236DCB6F90270B5F90220974282
:102AB00030DBB5F906309F422CDC002C75DD401A66
:102AC0009A1A401C521C00B212B200EBD07002EBFA
:102AD000D27240105210904200DB1046844200DD5A
:102AE0000446ADF80010288800222044ADF8040008
:102AF0006888ADF80200688831462044ADF80600C9
:102B00006846FFF7C1FF40B1BDF804002044ADF8AE
:102B100004003FE00020BDE8FC81E8880022001BA3
:102B2000ADF80200E888ADF8060031466846FFF7C8
:102B3000ABFF28B1BDF804002044ADF8040011E05B
:102B4000A8880022001BADF80000A888ADF804009A
:102B500031466846FFF798FF50B1BDF80000001BF2
:102B6000ADF80000BDF80200001BADF8020016E051
:102B70006888ADF80200688800222044ADF806009D
:102B800031466846FFF780FF70B1BDF80000001BBA
:102B9000ADF80000BDF806002044ADF8060031464F
:102BA00068461BF0D9FDB6E7FFE70120B3E710B593
:102BB000B1F90040B2F900309C4200DA23460380AC
:102BC000B1F90240B2F902309C4200DA2346438058
:102BD000B1F90440B2F904309C4200DD2346838001
:102BE000B1F90610B2F90620914200DC1146C1800D
:102BF00010BD00002DE9F0418AB007461EF076F8BE
:102C00000026934D044600960FB1F86801E010F0DD
:102C1000F5FE686000691BF09BFC6868406908B1BC
:102C20001BF096FC6868C0691BF092FC6868006A3B
:102C30001BF08EFC6868016951B31BF035FE1FF074
:102C4000D3FD6868B0F85011C1B14FF480713030D5
:102C500017F072F96868202100F5987017F06CF988
:102C60006868A0F8506120461EF03AF80090686845
:102C70000068436A13B12A680099984716F0A0FFCC
:102C800000F032F900F004F9724C67692FB13FE0AF
:102C9000A0F850610AB0BDE8F08116F042FD15F0D1
:102CA0003BFE074600227F211BF06BFB10F0BEF8B5
:102CB0000146002238461BF053FB10F00AFB014688
:102CC000002238461BF0B2FB0022032138461BF0DD
:102CD000A3FB0022032138461BF08FFB00220321B7
:102CE00038461BF08FFB0022032138461BF08FFB78
:102CF0000022032138461BF094FB57A1384616F0FA
:102D000091FC00231A460621384617F0EBFC676158
:102D100020681DF0E5FF4FF4967840450CD22868F6
:102D200041F28831884234D9606800990844606073
:102D3000A068401CA0602CE01DF0D8FF20606868EF
:102D4000406828B100684FF47A71B1FBF0F000E000
:102D50002120616809B901216160A168F1B14FF4D6
:102D60007A7251436268B1FBF2F56660A6608542F3
:102D700000D90546206928442061E068401CE060D5
:102D80001EF04AF8C0F164032A4634A1384616F012
:102D900080FC2F4C0834656815B137E00546E4E740
:102DA00016F0BFFC15F0B8FD054600227F211BF090
:102DB000E8FA10F03BF80146002228461BF0D0FA52
:102DC00010F087FA0146002228461BF02FFB002254
:102DD000032128461BF020FB0022032128461BF07C
:102DE0000CFB0022032128461BF00CFB00220321D0
:102DF00028461BF00CFB18A1284616F013FC0023F4
:102E00001A460421284617F06DFC656020681DF005
:102E100067FF40457FF63EAF1DF068FF206002A8C7
:102E200016F066FF04990298401A820A514200EB9C
:102E300081206621B0FBF1F39DF821109DF8200060
:102E4000CDE9000109A1284616F023FC22E7000085
:102E500050000020283100203F000000257520464A
:102E600050530A25752525204350550025752E25DC
:102E700075206B4220757365642028256420252504
:102E8000290A2564252520667261672E000000004E
:102E900070B50A4D002400BFC4EBC40655F82600E7
:102EA00008B116F001FF05EB86001C2117F044F86D
:102EB000641CE4B2042CEFD370BD00004C3300203E
:102EC000084949680AE04A68824202D00A68824298
:102ED00003D10A7E42F001020A7649690029F2D143
:102EE00070470000240000207047000004210148C2
:102EF00000F08CBB643200202021014800F086BB2A
:102F00007C3200202DE9FF410446DDE90A671D00FF
:102F10004FF0000002D1B6F5807F2BD003900190D6
:102F20000290ADF80C100090ADF80410ADF80A2036
:102F3000ADF80E203B463246294668461BF06CFB36
:102F40003B463246294601A81BF066FB3B4632460B
:102F5000294602A81BF060FB3B463246294603A8DF
:102F60001BF05AFBBDF90000BDF90430984209DAA4
:102F7000054608E02080491E6080A180521EE28044
:102F8000BDE8FF811D46BDF90820BDF90C108A423D
:102F900001DA164600E00E46B54203DA984206DB37
:102FA000184604E08A4201DA104600E00846801E16
:102FB0002080BDF90030BDF90420934201DD1D469B
:102FC00000E01546BDF90800BDF90C10884201DD8E
:102FD000064600E00E46B54205DD934201DD194686
:102FE00004E0114602E0884200DD0146891CA18010
:102FF000BDF90230BDF90620934201DA1D4600E01A
:103000001546BDF90A00BDF90E10884201DA0646E0
:1030100000E00E46B54205DA934201DA194604E0B3
:10302000114602E0884200DA0146891E6180BDF93E
:103030000230BDF90620934201DD1D4600E0154631
:10304000BDF90A00BDF90E10884201DD064600E018
:103050000E46B54205DD934201DD194604E01146F6
:1030600002E0884200DD0146891CE18088E700001B
:103070002DE9F04115460E460746114C1DF036FE6F
:1030800080462B4632463946204614F07DFE20B15C
:103090000020A062E06950B110E02C21204616F01B
:1030A0004BFF4FF00040A0620020BDE8F081404699
:1030B0001DF016FEE06108B90120E0612046F4E74A
:1030C000A032002010B51421074800F09FFA14F038
:1030D00021FE40B105490160054941600549816013
:1030E0000549C16010BDFEE7883200203D77010828
:1030F000B97A0108357C01080977010870B50D46D9
:1031000004461021284616F017FF20680078012891
:1031100004D0022807D0042807D008E0A08A28801D
:10312000E08A688003E0E06800E00A2068602068C8
:103130004268002A03D02946BDE87040104770BDA0
:103140002DE9FE430446808A10B9E08A002874D035
:10315000D4F82C805FEA080010D120460AF02BFA40
:103160005FEA000869D020460CF0C2FD0022092168
:10317000404613F013FD607880075ED44FF48079E9
:1031800000274E4645460021284619F0F1FA3844FA
:1031900007B20021284619F009FBC11700EB1160A6
:1031A000001210FB06F006B2284618F007FB0500D7
:1031B000E9D10FB94E450CD0784201B24FF48030BE
:1031C00090FBF6F002B26B4604F1140000951BF080
:1031D00023FAADF80450ADF8085094F8400000F020
:1031E0000F000328404616D018F03AFC0646404629
:1031F00018F0F0FA03460C200090B4F9161032468D
:10320000404609F091FDADF80800404618F034FB47
:10321000C10713D018E018F0B7FB0646404618F077
:1032200053FB024603200090B4F914103346404685
:1032300009F07AFDADF80400E7E736E0BDF90410C7
:10324000002901DDADF80450810705D4BDF9041053
:10325000002901DAADF80450410705D4BDF9081082
:10326000002901DDADF80850000705D4BDF90800BC
:10327000002801DAADF8085002AA01A9204620F082
:103280002DF8BDF90820BDF90410404600F059FAA8
:103290006078800709D4208BBDF80410084420838F
:1032A000608BBDF8081008446083BDE8FE832DE9FB
:1032B000FC5F0446C06A5FEA000B71D094F84000DE
:1032C00000076DD014F0F2FF019000684021457EA8
:1032D000584619F097FB4FF0000818B9A4F81E8063
:1032E000A4F81C80584618F0ADFB8246584618F0EA
:1032F000B0FB064694F840004FF0640900F00F0060
:103300000C2802D003284CD09AE0A4F81C8056B1B7
:10331000B4F91E50002714F0C9FF00684946407EEA
:10332000C0F1640022E0E08BC5F1640110FB01F103
:1033300091FBF9F0E083584618F04CFA05465846E0
:1033400018F08EFB02460C200090B4F91E102B469C
:10335000584609F0E9FCE083024600231EE07A1992
:1033600017B210FB05F292FBF1F215B2002DF6D167
:10337000ADF80070A4F81E806A46002120461FF0B8
:10338000ADFF41F6FF72BDF90030514258460AF0D8
:10339000B7FABDF800100123084402B200214CE046
:1033A0009AE0A4F81E80BAF1000F0AD0B4F91C50BC
:1033B000002714F07BFF00684946407EC0F164009E
:1033C00022E0A08BC5F1640110FB01F191FBF9F043
:1033D000A083584618F078FA0546584618F0D4FAF3
:1033E000034603200090B4F91C102A46584609F001
:1033F0009BFCA083014600231EE07A1917B210FB44
:1034000005F292FBF1F215B2002DF6D1ADF8007085
:10341000A4F81C800022694620461FF05FFF41F699
:10342000FF72BDF90030514258460AF0E1F9BDF88B
:1034300000100123084401B2002258461AF002FC91
:10344000A08B002848D1E08B002845D1C6B958464A
:1034500018F006FB0546584618F0BCF9002D06DCAE
:1034600000280DDD002D02DA01232A4604E00028A1
:1034700006DA0123404202B2002158461AF0E2FB6C
:10348000BAF1000F19D1584618F01EFA05465846F1
:1034900018F07AFA002D07DC00280EDD002D03DA83
:1034A00001230022294605E0002806DA0123002234
:1034B000404201B258461AF0C5FB0A215846019A0B
:1034C00013F06CFB6078800706D414F8400F20F0EE
:1034D0000F00207044F8148CBDE8FC9F7FB50E46A9
:1034E000040003D110F08AFA04002CD010F0FAFA8C
:1034F000002828D094F82800400724D4002506B3DB
:10350000ADF80050ADF80250204610F08FFA401E82
:10351000ADF80400204610F0CFFA401EADF80600CA
:103520006A46314602A8FFF7C7F900280BD0206889
:10353000017C890708D5DDE90001C4E90C010120FF
:1035400029E0A4F850517FBD82690AB102A99047D1
:1035500000260AE004EBC601002202A83031FFF782
:10356000D3F90028EFD1761CB6B2B4F85001B042BE
:10357000F0D880B2202804D204EBC00002A9303079
:1035800004E0A4F8505104F1300069460EF014F83C
:10359000B4F85001401CA4F8500160680028D2D053
:1035A0001DF0E8FC7FBD70B5054600F012F804463A
:1035B0000CE02146284600F01EF806462146284623
:1035C00000F071F8204616F06FFB3446002CF0D165
:1035D00070BD002800D04068704700B50346002247
:1035E000FFF7F7FF03E01846521C00F004F8010053
:1035F000F9D1104600BD0068091D405870470068A9
:1036000040587047002800D0806870470022426010
:10361000C91C21F0030182600160704770B5044647
:103620000068083016F0B4FA050013D001460022F5
:1036300020461EF0E3FC2946204662681EF0D8FCB6
:10364000616819B12A4620461EF0D8FC6560A06862
:1036500000B9A560284670BD70B504460068083002
:1036600016F096FA050013D00146002220461EF0FF
:10367000BFFC29462046A2681EF0C0FCA16819B113
:103680002A4620461EF0B4FCA560606800B965605B
:10369000284670BD28B1416809B9806808B100208A
:1036A00070470120704770B504000DD0FFF791FFFF
:1036B00000228842204608D1FFF79DFF606001008C
:1036C00001D000221EE0A26070BDFFF79BFF884280
:1036D000206808440AD10168A16029B12046BDE8EC
:1036E000704000221EF084BC626070BD05682046F8
:1036F000FFF781FF06460246294620461EF078FC69
:103700002A4631462046BDE870401EF077BC10B511
:103710000446006882680AB1214690472068006824
:10372000002801D02060F5E710BD8068002801D096
:10373000B0F9160070478068002801D0807E8009AB
:10374000704770B5164605460C4651EA06001AD079
:10375000284617F041F9A86801233246018A21441E
:103760000182A868418A314441822146284619F0E5
:10377000C3FC00220B21284613F010FA012803D1C4
:10378000284619F012FC012070BD77B581B00E46B5
:10379000050017D0612218F025FF040012D0206820
:1037A00080B128463146622218F01CFF10F0FF025B
:1037B00008D023682046039998470090BDF8000080
:1037C000ADF80C00039804B070BD00002DE9F0477F
:1037D000074692B0408C1A9E40F0040078849046D0
:1037E0003A8499468A463289384618F0FBFE0546E7
:1037F000A7F8209032895146384618F0F3FE044667
:10380000788CA54220F00400788403D12904B1EB20
:10381000044F68D0A7F8208032895146384618F006
:10382000E1FE05468046A7F82090514638460BF049
:10383000BBFA318900682A461CF0B2F930890B289E
:1038400023D147F6FF794D4501D04C451DD138466F
:1038500019F08FF800EBD0704510384617F06DFF67
:1038600000EBD0704010C84506D1691C431C99423A
:1038700000DA00E0194688464C4506D1691C421C16
:10388000914201DA6C1C00E014461948FFF7C6FEAD
:1038900005002BD02F60C5E903843089A8806846D5
:1038A000C5F808A00DF0A0F91248FF21CDE900509D
:1038B000114802901148039000200890CDE90901B9
:1038C00030880B9070889DF8421040420C90F06850
:1038D0000790002060F300018DF8421030690690D7
:1038E00068460DF0F5F912B0BDE8F087FEE700007C
:1038F000943200204D5D0208355F0208915E020897
:1039000014210148FFF782BE943200202DE9F84FC0
:1039100000259046894606462C460427E5E000BF70
:10392000F16807EBC400085882017AD480B230EA0B
:10393000090211D05FF0000230EA08000ED000202A
:1039400082426ED051F834A06A46102150461BF0D6
:103950008BFE002871D103E00122EDE70120EFE7A3
:103960006A46112150461BF07FFE002865D16A4649
:10397000122150461BF078FE00285ED16A461321C2
:1039800050461BF071FE002857D16A46152150465B
:103990001BF06AFE002850D16A46142150461BF0E5
:1039A00063FEE8BB6A460A2150461BF05DFEB8BBC9
:1039B0006A466A2150461BF057FE88BB6A466B2157
:1039C00050461BF051FE58BB6A46012150461BF081
:1039D0004BFE28BB6A46042150461BF045FEF8B951
:1039E0006A46022150461BF03FFEC8B96A460321D1
:1039F00050461BF039FE98B96A46052150461BF027
:103A000033FE68B96A46062150461BF02DFE38B9D0
:103A10006A46322150461BF027FE08B96A4601E08B
:103A20000BE061E06D2150461BF01EFE28B96A468E
:103A30006C2150461BF018FE10B10320BDE8F88F32
:103A40006A46682150461BF00FFEE8BB6A466921B2
:103A500050461BF009FEB8BB6A466D2150461BF06C
:103A600003FE88BB6A466C2150461BF0FDFD58BB27
:103A70006A46372150461BF0F7FD28BB6A463821BD
:103A800050461BF0F1FDF8B96A46352150461BF04F
:103A9000EBFDC8B96A46402150461BF0E5FD98B9D8
:103AA0006A46452150461BF0DFFD68B96A46412150
:103AB00050461BF0D9FD38B96A46422150461BF0EA
:103AC000D3FD08B96A4600E00AE0432150461BF0E6
:103AD000CBFD28B96A46492150461BF0C5FD08B107
:103AE000022501E005B90125641C708CC0F3C500F6
:103AF000A0423FF615AF2846A0E700000148406805
:103B0000704700005000002005490020486008610F
:103B1000C860886008604861024908604860704772
:103B20002831002058000020C0F30410072800D9D5
:103B300007207047A0F57F41FF3905D0002804D049
:103B4000702803D208490AE01F20704707497038DF
:103B500080B2096829B1064A5268904201D2085CD5
:103B60007047002070470000B89D0208C000002088
:103B7000D400002010B518210348FFF747FD034982
:103B80000120087010BD000040320020DC00002041
:103B90002DE9F04190460C46050015D0FCF727FCB6
:103BA0000A4F06462146BA68284690470446BA6836
:103BB0002819414690470146701A03E06218AA5C32
:103BC0002A55641CA042F9D2BDE8F081F000002023
:103BD0002DE9F041094D90460E466A681C4607469D
:103BE00019469047306020B120686A683844002147
:103BF0009047C8F80000BDE8F0810000F000002008
:103C00002DE9F04F87B00446DDE910581F46934672
:103C10008A46002005B1288054B1217841B1BAF11B
:103C2000000F05D0002618F0060F15D0002004E084
:103C3000002007B0BDE8F08F401C215C0A2904D0A9
:103C40000D2902D00029F7D100E0401C002DF0D052
:103C50004FF0FF312980ECE75FEA887101D541F62A
:103C6000FF7781468DF81400049026E0CDF8189077
:103C700068B34FF0000C05AA06ABCDF80CC0CDF828
:103C80000080CDE9013220443B465A4651461DF0A2
:103C9000D5FA06997A1A314417B20EB288B104994E
:103CA0000144049120780A280BD00D2809D0605CCB
:103CB0000A280FD00D280DD00846215C09B1002F2D
:103CC000D4DC049848B105B12E800498B1E74FF0D8
:103CD000010CD0E7481C0490F3E7074A04A92046EA
:103CE000526890470146002DEFD00022504613F055
:103CF00061F806B2E8E70000F00000202DE9F0418D
:103D00001746884606001ED0002F1CD0FCF76FFB1C
:103D100004463846FCF76BFB050014D00B4A2C44D4
:103D20004146926830469047411903E0621BB25CFD
:103D30003255641EA142F9D930442A463946BDE8BD
:103D4000F04116F0BBB8BDE8F0810000F0000020A3
:103D500000230278232902D0012A0DD00FE02AB1D6
:103D60000021012A04D0022A04D008E0012101E048
:103D7000017004E0017001E0202902D001231846FF
:103D800070470221F6E72DE9F0410E4680460246D3
:103D90000021334608461DF08FFC04460027401CD6
:103DA00015F0F6FE050008D02F5533464246611C3B
:103DB0001DF082FC2846BDE8F081FEE72DE9F047C2
:103DC0001E4614460D468246DDF8209015E000BFE1
:103DD0004FEA540808FB0657394650464A46904772
:103DE000002808DD44F30000C0EB540407EB06058F
:103DF000A4F1010401E005DA4446002CE8D1204694
:103E0000BDE8F0873846FBE72DE9FC5F9B460CAB2D
:103E10008A468146DDE9116093E81210DDE90F570B
:103E20005FEA80784FF030031AD45EB15FEAC07861
:103E300008D000F00C0858EA0C0803D0761E01E008
:103E40000B55641CBC4204D2202CF9D301E00B5565
:103E5000641C5FEAC07803D0B44201D2202CF6D3B0
:103E60005FEAC06825D55FEA40580AD44CB1BC422D
:103E700001D0B44205D1641E03D0102D03D1641EBD
:103E800004E0102D02D0022D0AD00EE0850603D4E6
:103E9000202C1ED2782506E0202C1AD2582502E0CC
:103EA000202C16D262250D55641C202C11D20B55E6
:103EB000641C202C0DD2BCF1000F01D02D2306E094
:103EC000430701D52B2302E0030702D520230B551E
:103ED000641CCDE900BAC846154681468B46AA4601
:103EE000800714D1274607E02A46DDE900316D1C22
:103EF0002020C446E0477F1CB742F5D307E02A469E
:103F00006D1C641EDDE900311BF80400C047002C65
:103F1000F5D15FEA897006D409E02A46DDE900316F
:103F20006D1C2020C047A5EB0A00B042F5D32846FF
:103F3000BDE8FC9F2DE9F04F8FB099468B46DDE937
:103F40001818DDE91C63DDE91A479246864600220F
:103F500009B923F01003580507AD00D5C9B1B1FB6D
:103F6000F4F004FB1010C0B20A2801D2303009E08E
:103F70005FEA836C02D54FF0410C01E04FF0610C19
:103F800060440A38B1FBF4F1A854521C09B1202A4C
:103F9000E5D3CDF80880CDE90563CDE90052CDE940
:103FA00003474B46524659467046FFF72DFF0FB068
:103FB000BDE8F08F2DE9FF4F8FB01CACDDE92395F4
:103FC00094E8030820AC94E8C004002450EA0102FD
:103FD00001D125F010056A050DF11C0802D550EA43
:103FE000010217D032463B46FCF766F9D2B20A2AE4
:103FF00001D2303206E0AB0601D5412300E0612357
:104000001A440A3A08F80420641C50EA010201D05C
:10401000202CE7D3CDE90084CDF808B0CDE9059593
:10402000CDE9036A0FAF97E80F00FFF7EDFE13B07D
:10403000BDE8F08F9A4200D2885470477047000064
:104040002DE9FF4F89B005460A98002492460028C2
:1040500000D1FE4D8FE1252804D02246641C534632
:104060000A990BE2491C4FF0000808460C910178B0
:104070002B2919D004DC202919D0232904D119E0D7
:104080002D290ED0302909D00026C8B2FEF7F5FB45
:10409000B0B10CA8FEF7DAFB06461FE048F00101BC
:1040A0000AE048F0020107E048F0040104E048F0AB
:1040B000080101E048F01001401C88460C90D6E74A
:1040C0000C9908782A2809D1169840C81690002E15
:1040D00002DA48F002087642491C0C910C984FF025
:1040E000000B01782E2919D1401C0C9048F48068EF
:1040F0000078FEF7C2FB20B10CA8FEF7A7FB8346B1
:104100000CE00C9A10782A2808D1169802C816904C
:10411000002900DC0021521C8B460C920C9801787F
:104120006C290AD004DC68290FD06A2919D128E04B
:10413000742929D07A2914D126E0401C0C900178EA
:1041400048F480786C291CD00BE0401C0C9001785E
:1041500048F08008682904D148F04001401C884696
:104160000C9002460078692822D015DC62281FD006
:104170000DDC252871D050281AD058287FF46DAF57
:1041800016E048F40071E9E748F48071E6E7632837
:1041900078D06428F2D10BE0732874D004DC6F2847
:1041A00006D07028EAD103E0752801D07828E5D13F
:1041B00078280DD058280BD070280BD0502809D063
:1041C0006F2816D0622816D00A2128F0100016E0B9
:1041D000102107E05078102148F48878562804D13F
:1041E000521C0C921078582807D01078502804D010
:1041F00006E0082109E0022107E048F0200080469F
:104200001078692803D0642801D028F00C085FEAF0
:10421000485001D528F00108107869281ED064287C
:104220001CD0562864D05FEA885072D5169804AB2B
:10423000C01D002283E806080292CDE9076820F03D
:1042400007005346F0E80212CDE90012169022460C
:1042500028460A99FFF7AEFE89E00AE15FEA885036
:1042600024D5169804AFC01D20F00703F3E802021E
:104270001693002387E80A08CDE90768002A03DAC5
:10428000012102E080E0A6E000210023029119460E
:104290001B1A914101DA114603E00021404261EB13
:1042A000020153462246CDE90001D1E75FEAC8503A
:1042B00004D5169804C80FE0524215E05FEA486042
:1042C00003D5169810F8042B06E05FEA0860F0D5D5
:1042D000169830F8042B12B21690CDE9021BCDE9E6
:1042E0000468D00F002AE7DDCDE9002053461EE028
:1042F0001698AAEB040202C816904868006800905D
:104300000A980B6801192846FFF79AFE04442FE02B
:10431000FFE75FEAC8500CD5CDE9021BCDE9046880
:1043200016980021534604C8CDE900211690224674
:1043300019E05FEA486003D5169810F8042B08E0EE
:104340005FEA0860169803D530F8042B92B200E0BB
:1043500004C816900020CDE90020CDE9021BCDE96C
:1043600004685346224628460A99FFF7E3FD0446AF
:104370000C98401C0C900C99087800287FF46BAEC8
:1043800054457DD222467DE001275FEA887006D53C
:1043900009E02246641C534620200A99A847384663
:1043A0007F1CB042F5D316992246641C11F8040B09
:1043B000169153460A99A8475FEA887006D4D7E752
:1043C0002246641C534620200A99A84738467F1C81
:1043D000B042F5D3CCE7169850F8049B16904B46A4
:1043E0005FEA0B0001D0014601E04FF0FF31484683
:1043F00000E0401C02780AB1491EFAD2C71A5FEAEF
:10440000485003D558465F4500D307465FEA887099
:1044100006D512E02246641C534620200A99A8477C
:1044200038467F1CB042F5D307E000BF224609F1B1
:104430000109641C53460A99A84799F8000040B145
:104440005FEA4851F2D5BBF1010B01E03D400008A5
:10445000ECD25FEA887006D48AE72246641C534691
:1044600020200A99A84738467F1CB042F5D37FE741
:1044700006E02246641C534625200A99A84777E7A0
:10448000AAF10102534600200A99A8470DB0204620
:10449000BDE8F08F10B502004FF000000CD04B1EAD
:1044A000194200D0FEE70A44521E9A43B2F5803FFB
:1044B00002D20C2A01D9104610BD0C2010BD0844B0
:1044C0004A1E401E9043114200D0FEE77047000094
:1044D0002DE9F0410F4601210025044641862E4674
:1044E0000BE01B49FBF7FCFF10B16D1CADB202E005
:1044F000608E401C6086761CB6B257F8260010B15C
:1045000001780029EDD1208EA8421ED0A06A002695
:1045100010B115F0C9FBA662E06A10B115F0C4FB3A
:10452000E662E80015F034FBA06238B1680015F0CF
:104530002FFBE06218B1A16A11B102E0FEE7FEE7CD
:104540000025690015F0F8FC2586BDE8F081000023
:10455000DC1F01082DE9F84F8146407A0F4600F034
:104560000700022819D010468046974200DD3A46DF
:10457000164603202A4C2B4A00EB460020F0030588
:10458000A06811681035411A636805EB010C9C4561
:1045900005D2416821F0004124E00846E4E79D424D
:1045A00019D892464FF0FF3B48196168884210D9EC
:1045B000002269461C48CDF800B00BF06BFF0022CA
:1045C00069461A480BF066FFA168DAF80000091A7C
:1045D000EAE7A068DDE7284615F0DAFAC0B14168DD
:1045E00041F0004188EA6702416089EA0201016006
:1045F000416801F04041491C31F0804141608681B1
:10460000A0F80E8005D500F110018160BDE8F88F9B
:10461000FEE7A16801F1100229448260A160F5E77C
:1046200060000020BC000020A5D500083905010865
:1046300070B586B000224A4C8DF808208DF80C2009
:104640008DF81020E2888A4201D0FF22A270E1801A
:1046500090F83C20142302F003024FF4B475012AB1
:1046600024D0022A5ED0A578AA4211D010F8265F85
:1046700005EB051505EB4505B5FBF3F52570407811
:1046800000EB001000EB4000B0FBF3F06070A27094
:1046900004AA03A8CDE9000201EB41004FF6FF7127
:1046A00001EA400002AB627821781BE0A678B242B2
:1046B00010D0868C06EB46067602B6FBF5F5A58093
:1046C00090F8270000EB001000EB4000B0FBF3F087
:1046D0006070A27004AA03A8CDE90002C9B202ABBF
:1046E00062783AE008F071FC9DF810109DF80C001B
:1046F000CB08BDF800109DF8082063F30401ADF865
:1047000000108108BDF8000061F34A10D10880B2A2
:1047100061F3CF20ADF8000080B20090BDF800003A
:1047200006B070BDA678B24210D0868C06EB460665
:104730007602B6FBF5F5A58090F8260000EB001098
:1047400000EB4000B0FBF3F02070A27004AA03A8B5
:10475000CDE90002CAB2217802ABA088C2E700000E
:10476000A401002010B5084C012020700748FEF776
:1047700030FF0028A06803D0BDE810401CF0FABB51
:10478000BDE810401CF0EABB94000020703200200D
:1047900010B5044690F84200A16B820709D4B4F822
:1047A00040204AB1A2F57F43FF3B1BD0521EA4F824
:1047B0004020B4F84020AAB909B1820712D5214699
:1047C0001448FEF770FFFFF7CDFFE16809B12046FE
:1047D0008847216909B1204688472046BDE8104036
:1047E00015F062BAE26B52422263002911D08207AF
:1047F00002D4626B524222634210521C62F34100A7
:1048000084F84200A26A206A2262A062E06AE16241
:10481000A06310BD7032002070B5304D68681CF088
:104820005FFA0646687880F00100687047E0002073
:10483000287094F842006978C0F380028A4242D01E
:1048400061F3820084F84200216B8A19030719D4AE
:10485000002917DC002A15DBC00709D1616939B1CD
:1048600020468847216A01442162A16A0844A06267
:10487000A16809B12046884794F8420040F008003A
:1048800084F84200206B8019206316D4E16A8842C4
:1048900000DD2163E169204688470146606A88425D
:1048A00004D0616262680AB120689047D4E90B01C4
:1048B000814202DB2046FFF76BFF287818B10848D9
:1048C000FEF787FE03E021460548FEF794FE04004C
:1048D000ADD11CF00BFA686070BD000094000020A0
:1048E0007032002070B5044640680D4608B1FFF7ED
:1048F000F9FF2268002A04D029462046BDE870400E
:10490000104770BD89B20CF0BCBD89B20CF0F5BD8A
:104910002DE9FF4F99B09846DDE926B12D9816464E
:104920008A464FF00009042811D0052811D0062826
:1049300012D0142870D101270225002418FB06F09C
:104940000E901A98401E0D90701E069051E100279F
:10495000F2E701270325F0E701270225FFF7CEF84C
:104960000068D0F83890E8E7289860430BEB2022E5
:10497000299860430AEB202110124FEA212E7DD4A2
:104980001A9B98427ADABEF1000F77DBB64575DAEA
:10499000D2B2CBB2802A05DAC2F17F024FF0FF31EA
:1049A000520003E001215200A2F580720992802B8F
:1049B00005DAC3F17F034FF0FF325B0003E0012211
:1049C0005B00A3F580730A930EFB080C199B0CFB8C
:1049D000053307934318119372D4DDF834C063454F
:1049E0006EDC1EEB02036BD4DDF818C0634567DC98
:1049F000DDF81CC011FB05C1CDE915C112FB08F1A2
:104A000001FB05C10C91D7B32D99052905D01429B7
:104A10000BD0062955D066E0EFE015988078079016
:104A20000C9881781698807810E0199A0E990EFBF0
:104A300008FC02EB41010A180EFB08111CF80200E9
:104A40000790119803FB08F3085C995C079A914260
:104A50000AD00A9A11FB02F20A99C1F580730799EC
:104A600011FB0321C1F30721079A90420DD0099A47
:104A700010FB02F20998C0F5807301E02FE035E0E9
:104A8000079810FB0320C0F3072008442C99400826
:104A9000085527D015980178407801EB0020ADF833
:104AA0000C000C980178407801EB0020ADF8100064
:104AB00016980178407801EB0020ADF8080023E05B
:104AC0004CE0159801881FFA89F0814207D00C99B3
:104AD0000988814203D016990988814203D12C9913
:104AE0000020085583E0FF210846CEE7159800888E
:104AF000ADF80C0016980088ADF808000888ADF8ED
:104B000010002C98FF210155BDF80C00BDF81010C5
:104B1000884209D1BDF80810884205D12B98BDF80C
:104B20000C1000EB440017E00A98C2B2DDE9031054
:104B30000EF044FB04900998C2B2DDE902010EF0C8
:104B40003DFB7F22029004990EF038FB00902B98D9
:104B5000BDF8001000EB4400018048E0079B93F88B
:104B600000C05B780CEB0323DDF8ACC09BB22CF8E3
:104B70001430DDF8B4C0BCF1050F06D0BCF1060F4F
:104B800006D0BCF1140F09D10AE0079B9B780FE017
:104B90001FFA89FC634501D1002309E0FF2307E0E8
:104BA000199B0EFB083C0E9B00EB43031CF80330E3
:104BB00008B9002905DBDDF834C0604503D10029C0
:104BC00001DD09980AE0BEF1000F01D1002A04DBE3
:104BD00006998E4508D1002A06DD0A98C0F1FF002B
:104BE00010FB03F0010A00E000212C980155641C21
:104BF00024B22A988442FFF6B7AE1DB0BDE8F08F0C
:104C000010B5818F92B00446A9B168460BF0ECFF55
:104C10000B480121CDE90040A08F0B9000200890A7
:104C2000CDE90901074807900748039068460CF052
:104C30004FF812B010BD12B0BDE810401DF024BBFB
:104C400001230208A70C01080323020810B504463B
:104C5000406882080AD0496821F00301091D084410
:104C60006060204600F042F8204610BDFEE7406834
:104C7000103120F00300884201D30120704700204A
:104C800070472DE9FC47054648680C4620F00300B4
:104C900001AA69461DF054F8DDE9007005EBC71163
:104CA00001EB80098046D9F83C0060B164B1C4E9E9
:104CB000020504F10806C46030460421FFF7FFFB3B
:104CC000864202D0FEE7FEE7FEE7C9F83C4001203D
:104CD000296900FA07F21143296105EB870100FAFF
:104CE00008F04A6902434A61BDE8FC8710B50446F2
:104CF00000F087F8046010BD2DE9FC4706464FF030
:104D000000000D0000900746019042D00C46E94695
:104D10000DF10408802907D3084621F00FF8411F40
:104D200001208840401E04444246494620461DF06A
:104D300007F8009C0A2C2CDA06EB8400019A4069E3
:104D40004FF0FF3101FA02F210400CD1641C3069BF
:104D5000A14008401DD020F0E9FF0446009006EB7A
:104D60008000406978B120F0E1FF034606EBC411F2
:104D7000019001EB8000C76B5FB1786820F0030001
:104D8000A84201D2FEE7FEE739463046009A1EF0FF
:104D9000BDF83846BDE8FC8710B50446FFF7A6FF0E
:104DA000416841F002014160606840F001006060CC
:104DB00010BD10B5044600F024F8416821F002014E
:104DC0004160606820F00100606010BD70B506466B
:104DD0000D46084600F015F8040010D02079C007F1
:104DE0000BD0686880080BD02146304600F03CF8B4
:104DF00021462846FFF72AFF0546284670BDFEE7F4
:104E0000FEE7426800F1080122F00300001F084499
:104E1000910800D1FEE7704770B506460C004FF0D0
:104E200000001ED0F2B120791546C0071BD01146F4
:104E30002046FFF71CFF78B12946204600F025F8F0
:104E400005462046FFF752FF6868294640F00200F9
:104E500068603046FFF715FF2046FFF7AAFF04F110
:104E6000080070BDFEE7FEE77CB5054648680C46C5
:104E700020F0030001AA69461CF062FFDDE900236F
:104E8000214628461EF042F87CBD2DE9F0410D4632
:104E9000044600F10801281F0E18606806F1080793
:104EA00020F00300401BA0F1040838460421FFF75E
:104EB00006FB874200D0FEE7606820F0030108EBA4
:104EC0000500001D814200D0FEE7307900F00300AC
:104ED00040EA0800706020F003000C2800D2FEE7D2
:104EE000207900F00300284360603046FFF754FF4C
:104EF0003046BDE8F08138B5044613F0D7F90546D1
:104F000013F009FA0028204605D0218FE18618F019
:104F10004CF8012038BD11F009FC002820461ED0B5
:104F200011F0D8FA218FE08E81420CD02087E08EDC
:104F300000906A461C21204611F030FE0128E9D17C
:104F4000204618F032F8284613F0F1F90428E0D191
:104F5000204616F0EDFB002112F046FBD9E711F0D8
:104F600041FCD6E770B511F015FE054616F026FC9B
:104F7000044628460DF0ECF801462046BDE8704096
:104F800001221BF0DFB900002DE9F04F0D4687B07C
:104F90000446002116F000FB60B32946204600F0CD
:104FA00061FA2946204600F06FF80021204617F0EC
:104FB00011FA05900021204617F0BAFA049000215A
:104FC000204617F0F0F8012800D00020804600218C
:104FD000204617F003FC07460021204617F052F93F
:104FE00042F2D17906464F450BD1608C400508D47A
:104FF000012707E007B02846BDE8F04F1C2114F058
:105000009BBF0027204616F045FBDFF878A08346BB
:1050100020460021BAF8042017F0E4FAD5F810C0B1
:10502000AB682968CDF800C0CDF80C80CDE901311E
:10503000C2B239465846059B09F028FF28834E45E1
:1050400004D1608C800501D4012600E000262046B2
:1050500016F006FB074620460021BAF8082017F094
:10506000C1FAC2B2686900246B68E9688DE81B0068
:1050700031463846049B09F009FF688307B0BDE854
:10508000F08F0000380100202DE9F34F81B00C466D
:10509000019809F07DF90646019816F0FBFA824660
:1050A000304600F0E3FF2061400014F09FFD2060D7
:1050B0002069400014F09AFD002541F69A79A0601D
:1050C0003AE036F91510DFF82081494533D1002741
:1050D000DFF818B11FE03946019816F05DFA59461D
:1050E000009017F096FCA8B9009809F063F9012820
:1050F00010D1009809F054F9A8420BD1009817F08C
:1051000038FC4146404501DA084602E0009817F0B5
:1051100030FC80467F1C019816F050FAB842DAD86D
:10512000B8F1000F03DBA16821F8158003E0A16846
:10513000002021F815006D1C2069A842C1D8002567
:105140002F46284641F69B784B4615E036F910105D
:10515000414504DB0D44A5F5F8559B3D0BE0994214
:1051600004D1A16831F81010394403E0A26822F894
:10517000101039440FB2401C21698142E6D8002149
:10518000019817F027F92169C1F1010200FB02A083
:10519000C01B00B2002800DA002000224FF0FF33CD
:1051A0001146C44611E000BF36F9117067450BDBAC
:1051B000A7F5F8579B3F3AB210FB02F3B3FBF5F3A8
:1051C000A76827F811300B46491C27698F42EBD896
:1051D000002B07DBA91A4143B1FBF5F1401AA16886
:1051E00021F81300BDE8FE8F01E0FFFF010006007B
:1051F0002DE9F14F00221146009818F065FE0021BC
:10520000009816F0FDFF04460021009817F09CF965
:1052100020440FFA80F90021009817F087F8204405
:105220000FFA80F8009816F05FFF00EB090101EB20
:105230000800DFF898A006B25446009816F0BEF9B0
:10524000074600252AE0009821498068006850F848
:105250002500834617F0DDFBF8B9584617F0FEFE2F
:1052600040BB0021584616F063FF18B3012821D037
:1052700002281FD003281DD00021584617F0C0FA7D
:1052800058B9BBF81A10BBF81600081A401C00B237
:105290004844A04200DB044624B26D1CBD42D2D378
:1052A000544504D004EB080000B2B04200DC3046A4
:1052B000BDE8F88F0098BBF91A10B0F91600081A6B
:1052C000411CA142E8DB0C46E6E7000001E0FFFFDD
:1052D000010004002DE9F84F00228046114618F025
:1052E000DDFD0021404616F08BFF044600214046BC
:1052F00017F0D0F820440FFA80FA0021404617F04A
:105300007BF820440FFA80F9404616F0FBFE00EBD4
:10531000090101EB0A00DFF844B105B25C464046E2
:1053200016F04CF907460021404616F01EFF0128F2
:105330004FF0000644D078E0D8F8080048490068EB
:1053400050F82600009017F064FBC0BB009817F0DF
:1053500085FE50B10098B8F91810B0F91400091A78
:10536000481CA0422ADB4C1C28E00021009816F0C3
:10537000DFFE58B1032809D0062807D0082805D039
:105380000021009817F036FA58B118E00098B8F9E3
:105390001810B0F91400081A411CA1420EDB0C468B
:1053A0000CE00098143000900CF080F95044A042BA
:1053B00004DB00980CF07AF900EB0A0424B2761CA6
:1053C000BE42B9D35C453BD004EB090033E000BFDB
:1053D000D8F808002249006850F82600009017F01D
:1053E00018FB08BB009817F039FE60BB002100983D
:1053F00016F09EFE38B3012825D0042823D00728B4
:1054000021D00021009817F0FBF968B900981430FA
:1054100000900CF04BF94844A04204DB00980CF0DB
:1054200045F900EB090424B2761CBE42D0D35C459A
:1054300006D004EB0A0000B2584501D0A84200DCB7
:105440002846BDE8F88F0098B0F91810B8F9140094
:10545000091A481CA042E6DB4C1CE4E701E0FFFF10
:10546000010004002DE9F84F0C46834609F094FB37
:10547000064600F0FBFD6061400014F0B7FB606081
:105480006069400014F0B2FB002541F69A79E060B3
:105490003AE036F91500DFF82881484533D1002776
:1054A000DFF820A11FE03946584616F075F851463E
:1054B000009017F0AEFAA8B9009809F0F9FB01289E
:1054C00010D1009809F0EAFBA8420BD1009816F021
:1054D00034F94146404501DA084602E0009816F0EA
:1054E0002CF980467F1C584616F068F8B842DAD886
:1054F000B8F1000F03DBE16821F8158003E0E168F3
:10550000002021F815006D1C6069A842C1D8002553
:105510002F46284641F69B784B4615E036F9101089
:10552000414504DB0D44A5F5F8559B3D0BE0994240
:1055300004D1E16831F81010394403E0E26822F840
:10554000101039440FB2401C61698142E6D8002135
:10555000584616F0EDFF8146584616F081F8014690
:105560006069C0F1010209FB0210C01B00B20028F3
:1055700000DA002000224FF0FF331146C44610E04D
:1055800036F9117067450BDBA7F5F8579B3F3AB228
:1055900010FB02F3B3FBF5F3E76827F811300B4675
:1055A000491C67698F42EBD8002B07DBA91A4143DE
:1055B000B1FBF5F1401AE16821F81300BDE8F88F5E
:1055C00001E0FFFF010006001CB50B88048923449D
:1055D000ADF800304B8844892344ADF802308B8805
:1055E00004892344ADF80430C98843891944ADF8CF
:1055F00006104369694698471CBD00002DE9FF4F1E
:1056000089B0C8781A9CC0070D46002801D0F84818
:1056100000E0F848069001D0F74800E0F748049011
:1056200001D1F54800E0F5484FF010034FF00C0EA3
:105630004FF0080BCDF814006188A2884FF0000AE3
:10564000A1EB0201504609B25246D4F810C00FE057
:1056500002EB8207E66803EB870816F808805FEA2A
:10566000C87809D00BEB8707F65B891B09B2521C7F
:105670009445EDD8002254E00EEB8707F65B3044EA
:1056800000B2F4E7E66802EB820703EB870CB14651
:10569000CDF820C016F80C60F60741D1002872D072
:1056A00091FBF0F80EEB8706079639F8066006FBCB
:1056B00008F60FFA86FCCDF800C04FF0060C0CEB94
:1056C000870C042639F90C8006EB8706DDF800C04C
:1056D00039F90660E04500DCC446664504DC009EFE
:1056E000C446B04500DC6646DDF800C0019666455C
:1056F00006D0DDF820C04FF00108C24649F80C8002
:10570000D4F80C80019E0BEB870728F80760D4F8CB
:105710000CC0079F3CF80770C01B891B00B209B280
:10572000521C26699642ADD8BAF1000F84D10021EF
:10573000099816F032FD012826D000270020ADF888
:105740000800ADF80C0003A902A8CDE900012089EA
:10575000B4F9022003B2287818991CF0E1FCE8782B
:10576000384207D0099815F095FFBDF80810084495
:10577000ADF808000B99099815F00EFF06464FF496
:10578000FA682AE1FFE7FEE70127D7E79C493046A0
:1057900017F03FF900286FD10021304616F05CFD6C
:1057A000F0B34FF00009484621690FE0E26800EBD2
:1057B000800352F82320B24207D1E16800EB800257
:1057C0000BEB820031F9009002E0401C8142EDD8E1
:1057D000E878C007708C04D020F4007040F480603A
:1057E00003E020F4806040F40070708406F114003F
:1057F000049982468847484528D0304617F0D5FBA3
:10580000B08AADF80000F08AADF80200308BADF838
:105810000400708BADF8060049465046069A00E039
:1058200010E090476A462921304611F0B7F930461A
:1058300015F0C4FF3246222111F0B0F9304617F0BE
:10584000B4FB03E0708C20F4C060708400200090F2
:105850006878012811D0022817D1059906F11400A3
:105860008847B4F90010491C21F00101081A00EB27
:10587000D07040F34F0007E0A7E0059906F114004F
:1058800088472188081A00B20090E878384208D08A
:10589000049906F114008847BDF80810081AADF8FD
:1058A0000800304600216A2216F09CFE0FFA80F9AB
:1058B000304600216B2216F095FE0FFA80FA304632
:1058C00017F057F80190304615F037FF0146C9F33D
:1058D000413001280FD129F4C04040450BDCB0F520
:1058E0007A7F01DDC0F57A70019A5043642290FB03
:1058F000F2F00FFA80F9CAF3413001280ED12AF4F0
:10590000C04040450ADCB0F57A7F01DDC0F57A7011
:105910004843642190FBF1F00FFA80FAB18A16989F
:10592000F28A411A01EB0900179900B28A1A02EBB8
:105930000A01EA7809B2D207002A02D0BDF908208C
:1059400000E0009A10440FFA80FA01D0009801E0BC
:10595000BDF9080008440FFA80F95AEA09011BD082
:10596000304617F022FBB18A01EB0A00B082318B7E
:1059700001EB0A003083F18A01EB0900F082718BA0
:1059800001EB09007083304617F00FFB00234A46F5
:105990005146304617F0B0FBE87838420CD10499F4
:1059A00006F11400884719990844BDF80C10084402
:1059B000BDF80810084406E0BDF80C10199808441A
:1059C000BDF80810081AADF80800E8780BAAC0F373
:1059D0008001099808F0A6FF0646002E04D0DDE9F4
:1059E0000B0188427FF4D2AE0DB0BDE8F08F00000D
:1059F000351701082B170108DD1601088516010867
:105A0000010006002DE9F04F91B00E0005463FD091
:105A10002E83286808B114F047F906EB46000621EA
:105A200001EB400014F0B4F8286040B3022101EB10
:105A300046010144E960042101EB86010144C5E906
:105A4000010101210024012E1AD0F000083014F0C9
:105A5000CDF8814600EB860000F10408B00000B2EA
:105A6000A346ADF81000C0F101028010ADF812B0ED
:105A70000FFA82FA5C46CDF828B00690ABE0FEE75C
:105A8000B4220270E8680480E8684180A868048055
:105A900011B0BDE8F08F0027BDF81220BAF1000F59
:105AA00007DC032101EB42010AEB01000FFA80FA47
:105AB0000CE0BDF810100523521A03EB420202EB72
:105AC0000A00491E0FFA80FAADF81010BDF8120056
:105AD000401CADF8120004A800F0E9F868B1BDF967
